:100000000C9457010C9488010C9488010C9488017D
:100010000C9488010C9488010C9488010C9488013C
:100020000C9488010C9488010C9488010C9488012C
:100030000C9488010C9488010C9488010C9488011C
:100040000C9488010C947B070C9488010C94880113
:100050000C9488010C9488010C9488010C94470638
:100060000C9488010C94BB060C9491060C948801A6
:100070000C9488010C9488010C9488010C948801DC
:100080000C944D070C9488010C9488010C94880101
:100090000C9488010C9488010C9488010C948801BC
:1000A0000C9488010C9488010C941F070C9488010F
:1000B0000C9488010C9488010C9488010C94F1062E
:1000C0000C9488010C9488010C9488010C9488018C
:1000D0000C9488010C9488010C9488010C9488017C
:1000E0000C9488010C94D50A0C94F80A0C942D02F7
:1000F0000C94160B0C94020B0C94A9070C949D0AFB
:100100000C9457020C94B10A0C9459030C947B0381
:100110000C94B3030C94930A0C94DF0A0C943F02E2
:100120000C9427020C9412020C94CB0A0C94200B12
:100130000C946D030C9445020C94EE0A0C94490245
:100140000C9418020C9453020C94A70A0C943102DC
:100150000C9420020C941D030C94890A0C94000446
:100160000C940C0B0C944A030C941C020C948E0AF5
:100170000C9424020C9452020C943B020C94C10A7D
:100180000C94B90A0C944D020C9437020000200024
:100190002300260029002C002F003200000100005F
:1001A00003010601090100002100240027002A00A4
:1001B0002D003000330001010000040107010A0195
:1001C00000002200250028002B002E003100340002
:1001D00002010000050108010B01050505050705E1
:1001E00008080808020202020A0A080804040404B3
:1001F00001010101010101010303030303030303DF
:10020000040707070C0C0C0C0C0C0C0C020202026D
:1002100006060606060606060B0B0B0B0B0B0B0B56
:100220000102102020080810204010204080020108
:1002300002010804020101020408102040808040ED
:1002400020100804020180040201804020100804EC
:10025000020108040201010204081020408001028A
:1002600004081020408000000A0B02090C0D0E0843
:10027000070304010000000000000000000000006F
:10028000000000000000000000000000000000006E
:10029000000012111000000000000000000000002B
:1002A000000000000000000000000000A907112469
:1002B0001FBECFEFD1E2DEBFCDBF00E00CBF12E02A
:1002C000A0E0B2E0E8E6FEE100E00BBF02C007906C
:1002D0000D92A435B107D9F723E0A4E5B2E001C03F
:1002E0001D92A63AB207E1F711E0C7E5D1E000E0C0
:1002F00006C021970109802FFE010E94E70CC63538
:10030000D10780E00807A9F70E9406080C94320F75
:100310000C9400008F929F92AF92BF92FF920F9326
:100320001F93CF93DF93853B910511F484EB90E00D
:10033000F090A3032FE22F1508F44CC02091A503E1
:1003400008E512E0021B110927FD1395000F111F8C
:10035000000F111F2091A403C8E8D0E0C21BD109EF
:1003600027FDD395CC0FDD1FCC0FDD1F4E010D2EC9
:10037000000CAA08BB089801012E000C440B550B79
:10038000281939094A095B09DC010E94A20C24EBF7
:1003900030E040E050E00E94780C820E931EA41ED4
:1003A000B51E8C169D062CF0E801801691060CF403
:1003B000E4012297CC0FDD1F2FB7F8948F2D90E02A
:1003C000FC01EE0FFF1FE80FF91FEE5EFC4FD2831A
:1003D000C1832FBFDF91CF911F910F91FF90BF90ED
:1003E000AF909F908F9008958150823108F05AC04D
:1003F000E82FF0E08827E050FE4F8F4F0C94E70C79
:1004000020022402120218021C02520227022D02AC
:10041000310237023B023F024502490252024D02BD
:1004200053025702809180008F7780938000089557
:10043000809180008F7DF9CF80918000877FF5CFFC
:1004400084B58F7784BD089584B58F7DFBCF80916F
:10045000B0008F778093B00008958091B0008F7DB9
:10046000F9CF809190008F778093900008958091CC
:1004700090008F7DF9CF80919000877FF5CF80919C
:10048000A0008F778093A00008958091A0008F7DB9
:10049000F9CF8091A000877FF5CF809120018F77E1
:1004A000809320010895809120018F7DF9CF809164
:1004B0002001877FF5CF1F93CF93DF93282F30E064
:1004C000F901EA59FD4F8491F901E05EFD4FD491A5
:1004D000F901E652FE4FC491CC23A9F0162F8111E9
:1004E0000E94F401EC2FF0E0EE0FFF1FE054FE4FEE
:1004F000A591B4918FB7F894EC91111108C0D095E3
:10050000DE23DC938FBFDF91CF911F910895DE2B07
:10051000F8CFCF93DF9390E0FC01E05EFD4F249194
:1005200086529E4FFC0184918823C9F090E0880F89
:10053000991FFC01EA55FE4FA591B491FC01E054CE
:10054000FE4FC591D49161110DC09FB7F8948C9165
:10055000209582238C938881282328839FBFDF9155
:10056000CF910895623051F49FB7F8943C91822F57
:10057000809583238C93E8812E2BEFCF8FB7F8944F
:10058000EC912E2B2C938FBFEACF3FB7F89480913C
:10059000710290917202A0917302B091740226B51B
:1005A000A89B05C02F3F19F00196A11DB11D3FBFAB
:1005B000BA2FA92F982F8827BC01CD01620F711D7A
:1005C000811D911D42E0660F771F881F991F4A9574
:1005D000D1F708958F929F92AF92BF92CF92DF9200
:1005E000EF92FF926B017C010E94C5024B015C01FE
:1005F000C114D104E104F104B9F00E94C5026819E4
:1006000079098A099B09683E73408105910580F349
:1006100021E0C21AD108E108F10888EE880E83E0D3
:10062000981EA11CB11CE4CFFF90EF90DF90CF90FB
:10063000BF90AF909F908F900895AF92BF92CF924E
:10064000DF92EF92FF920F931F93CF93DF936C0192
:100650007B018B01040F151FEB015E01AE18BF0873
:10066000C017D10759F06991D601ED91FC91019025
:10067000F081E02DC6011995892B79F7C501DF912D
:10068000CF911F910F91FF90EF90DF90CF90BF908F
:10069000AF900895FC01538D448D252F30E0842FB9
:1006A00090E0821B930B541710F0CF96089501979A
:1006B0000895FC01918D828D981761F0A28DAE0F87
:1006C000BF2FB11D5D968C91928D9F5F9F73928F0E
:1006D00090E008958FEF9FEF0895FC01918D828D3A
:1006E000981731F0828DE80FF11D858D90E0089507
:1006F0008FEF9FEF0895FC01918D228D892F90E05F
:10070000805C9F4F821B91098F739927089585E71D
:1007100092E00E947B0321E0892B09F420E0822FE4
:100720000895FC01A48DA80FB92FB11DA35ABF4F86
:100730002C91848D90E001968F739927848FA689E0
:10074000B7892C93A089B1898C91837080648C9334
:10075000938D848D981306C00288F389E02D8081E3
:100760008F7D80830895EF92FF920F931F93CF9315
:10077000DF93EC0181E0888F9B8D8C8D98131AC0DC
:10078000E889F989808185FF15C09FB7F894EE89C3
:10079000FF896083E889F989808183708064808320
:1007A0009FBF81E090E0DF91CF911F910F91FF906B
:1007B000EF900895F62E0B8D10E00F5F1F4F0F7313
:1007C0001127E02E8C8D8E110CC00FB607FCFACFCE
:1007D000E889F989808185FFF5CFCE010E949103D8
:1007E000F1CFEB8DEC0FFD2FF11DE35AFF4FF0829F
:1007F0009FB7F8940B8FEA89FB8980818062CFCF05
:10080000CF93DF93EC01888D8823B9F0AA89BB8947
:10081000E889F9898C9185FD03C0808186FD0DC032
:100820000FB607FCF7CF8C9185FFF2CF808185FF53
:10083000EDCFCE010E949103E9CFDF91CF910895D2
:1008400080E090E0892B29F00E94870381110E94AB
:10085000000080E090E0892B49F080E090E0892B57
:1008600029F00E94000081110E94000080E090E0C9
:10087000892B49F080E090E0892B29F00E9400004C
:1008800081110E94000080E090E0892B49F080E017
:1008900090E0892B29F00E94000081110C94000047
:1008A0000895AF92BF92CF92DF92EF92FF920F9393
:1008B0001F93CF93DF936B017A01EC01CC5ADD4F8C
:1008C00028813CE0389F8001399F100D1124A090B1
:1008D000A203B12C27FF1FC0FB0111821082888167
:1008E0008F5F888388819801280F311D87FD3A9595
:1008F000F6012A153B051CF488818C30C4F18081F7
:100900009181049680349C4908F473C0F60180817B
:100910009181049670C088819801280F311D87FD50
:100920003A952A153B05DCF68881A801480F511D30
:1009300087FD5A95FA01EE0FFF1FE40FF51FEE5EDB
:10094000FC4F808186FFCBCF8881F801E80FF11D35
:1009500087FDFA95CF01EE0FFF1FE80FF91FEE5E3E
:10096000FC4F808160E08F730E945B02B8CF808172
:1009700091812881A801420F511D27FD5A959A01A6
:10098000FA01EE0FFF1FE20FF31FEE5EFC4F218115
:100990003281820F931FF7019183808388819801B0
:1009A000280F311D87FD3A95F901EE0FFF1FE20F69
:1009B000F31FEE5EFC4F808186FF22C08881080F06
:1009C000111D87FD1A95F801EE0FFF1FE00FF11FB3
:1009D000EE5EFC4F808161E08F73DF91CF911F91BC
:1009E0000F91FF90EF90DF90CF90BF90AF900C945D
:1009F0005B0280E49CE9F701918380838FEF888319
:100A0000DF91CF911F910F91FF90EF90DF90CF90EA
:100A1000BF90AF900895FC0101900020E9F7319755
:100A2000AF01481B590BBC0185E792E00C941D03F4
:100A30008F929F92AF92BF920F931F93CF93DF93AA
:100A4000CDB7DEB7A1970FB6F894DEBF0FBECDBF0E
:100A500019A2423008F44AE08E010F5D1F4F842E28
:100A6000912CB12CA12CA50194010E94AA0CE62F77
:100A7000B901CA01EA30F4F4E05DD801EE938D01CA
:100A8000232B242B252B79F790E080E0109719F089
:100A9000CD010E940B05A1960FB6F894DEBF0FBEE4
:100AA000CDBFDF91CF911F910F91BF90AF909F90DD
:100AB0008F900895E95CE1CF4F925F926F927F92A1
:100AC0008F929F92AF92BF92CF92DF92EF92FF925E
:100AD0000F931F93CF936B017C01742EAC019B018C
:100AE0000E942D0F882399F084E192E0CF911F910D
:100AF0000F91FF90EF90DF90CF90BF90AF909F90BD
:100B00008F907F906F905F904F900C940B054601F3
:100B10005701E894B7F82FEF3FEF4FE75FE7C501C4
:100B2000B4010E942D0F81110DC02FEF3FEF4FE751
:100B30005FE7C501B4010E945C0D18161CF488E142
:100B400092E0D4CF2FEF3FEF4FE75FE4C701B6014C
:100B50000E94BB0E18161CF48CE192E0C7CF2FEF59
:100B60003FEF4FE75FECC701B6010E945C0D87FDC8
:100B7000F3CF20E030E0A901C701B6010E945C0D6F
:100B800010E000E087FF0AC06DE285E792E00E9476
:100B9000B3038C01F7FAF094F7F8F094C0E060E04A
:100BA00070E080E09FE37C1641F020E030E040E21E
:100BB00051E40E94610DCF5FF6CFA70196010E941C
:100BC000F00C2B013C010E94DA0D4B015C014AE064
:100BD0000E9418057C01E00EF11ECC23C1F1C50175
:100BE000B4010E94090E9B01AC01C301B2010E9435
:100BF000EF0C4B015C016EE285E792E00E94B303CB
:100C0000E80EF91EC15018F120E030E040E251E456
:100C1000C501B4010E94C00E2B013C010E94DA0DF7
:100C20004B01B12CA12C4AE0C501B4010E9418056A
:100C3000E80EF91EC501B4010E94090E9B01AC012A
:100C4000C301B2010E94EF0C4B015C01DBCFC70175
:100C5000CF911F910F91FF90EF90DF90CF90BF90B9
:100C6000AF909F908F907F906F905F904F9008957E
:100C7000CF93DF9342E00E945C05EC0180E292E0BA
:100C80000E940B058C0F9D1FDF91CF9108951F923D
:100C90000F920FB60F9211242F933F938F939F9330
:100CA000AF93BF9380916D0290916E02A0916F02FD
:100CB000B091700230916C0223E0230F2D3758F56C
:100CC0000196A11DB11D20936C0280936D0290933B
:100CD0006E02A0936F02B0937002809171029091A6
:100CE0007202A0917302B09174020196A11DB11D10
:100CF0008093710290937202A0937302B093740276
:100D0000BF91AF919F918F913F912F910F900FBE07
:100D10000F901F90189526E8230F0296A11DB11D74
:100D2000D2CF1F920F920FB60F9211240BB60F92D3
:100D30002F933F934F935F936F937F938F939F93E3
:100D4000AF93BF93EF93FF9385E792E00E949103E7
:100D5000FF91EF91BF91AF919F918F917F916F9193
:100D60005F914F913F912F910F900BBE0F900FBE4F
:100D70000F901F9018951F920F920FB60F9211248B
:100D80000BB60F922F938F939F93EF93FF93E09166
:100D90008502F09186028081E0918B02F0918C02B5
:100DA00082FD1DC0908180918E028F5F8F73209194
:100DB0008F02821741F0E0918E02F0E0EB58FD4F78
:100DC000958F80938E02FF91EF919F918F912F913C
:100DD0000F900BBE0F900FBE0F901F901895808143
:100DE000F2CF1F920F920FB60F9211240BB60F92F3
:100DF0002F933F934F935F936F937F938F939F9323
:100E0000AF93BF93EF93FF9348E251E064E271E048
:100E100090E080E00E945104FF91EF91BF91AF916B
:100E20009F918F917F916F915F914F913F912F9102
:100E30000F900BBE0F900FBE0F901F9018951F9232
:100E40000F920FB60F9211240BB60F922F933F9370
:100E50004F935F936F937F938F939F93AF93BF93C2
:100E6000EF93FF9348EA50E064EA70E083E090E09B
:100E70000E945104FF91EF91BF91AF919F918F918B
:100E80007F916F915F914F913F912F910F900BBE8A
:100E90000F900FBE0F901F9018951F920F920FB6D4
:100EA0000F9211240BB60F922F933F934F935F93A2
:100EB0006F937F938F939F93AF93BF93EF93FF9322
:100EC00048E950E064E970E082E090E00E9451045B
:100ED000FF91EF91BF91AF919F918F917F916F9112
:100EE0005F914F913F912F910F900BBE0F900FBECE
:100EF0000F901F9018951F920F920FB60F9211240A
:100F00000BB60F922F933F934F935F936F937F9303
:100F10008F939F93AF93BF93EF93FF9348E850E075
:100F200064E870E081E090E00E945104FF91EF914D
:100F3000BF91AF919F918F917F916F915F914F91F1
:100F40003F912F910F900BBE0F900FBE0F901F90EF
:100F50001895109278021092770288EE93E0A0E044
:100F6000B0E08093790290937A02A0937B02B093D1
:100F70007C0286E092E0909376028093750285EC85
:100F800090E0909382028093810284EC90E09093B1
:100F900084028093830280EC90E090938602809399
:100FA000850281EC90E0909388028093870282EC26
:100FB00090E090938A028093890286EC90E090936F
:100FC0008C0280938B0210928E0210928F021092EC
:100FD0009002109291028091A203803398F491E0E4
:100FE000980F9093A2038093A30390E0FC01EE0F6F
:100FF000FF1FE80FF91FEE5EFC4F88EB9BE092832A
:10100000818308958FEF8093A3030895789484B526
:10101000826084BD84B5816084BD85B5826085BDF4
:1010200085B5816085BD80916E00816080936E0082
:101030001092810080918100826080938100809174
:101040008100816080938100809180008160809325
:1010500080008091B10084608093B1008091B000E5
:1010600081608093B00080919100826080939100B4
:1010700080919100816080939100809190008160C7
:10108000809390008091A10082608093A100809164
:10109000A10081608093A1008091A0008160809375
:1010A000A000809121018260809321018091210123
:1010B00081608093210180912001816080932001D3
:1010C00080917A00846080937A0080917A008260B7
:1010D00080937A0080917A00816080937A00809179
:1010E0007A00806880937A001092C100E0918502B6
:1010F000F091860282E08083E0918102F091820289
:101100001082E0918302F09184028FEC8083109230
:101110008D02E0918902F0918A0286E08083E0915D
:101120008702F0918802808180618083E09187024C
:10113000F0918802808188608083E0918702F0913D
:101140008802808180688083E0918702F091880224
:1011500080818F7D808360E086E30E94890262E067
:1011600082E00E94890261E083E00E94890262E0DD
:1011700082E00E9489028091A303803308F052C06C
:1011800061E089E00E9489028091A303282F30E06A
:10119000F901EE0FFF1FE20FF31FEE5EFC4F90818F
:1011A000907C996090831092A4031092A5032CE088
:1011B000622F0E94DB0C829FB001112430E020E0FE
:1011C000AB01420F531FFA01EE0FFF1FE40FF51F93
:1011D000EE5EFC4F908196FD17C02F5F3F4F2C3085
:1011E000310571F7813009F038C11092800082E03A
:1011F000809381001092850010928400B19A8091B2
:101200006F00826080936F00E091A3038E2F90E0C7
:10121000FC01EE0FFF1FE80FF91FEE5EFC4F80810F
:101220008064808390E080E00E948A01E0915A020D
:10123000F0915B021482158200E49EE1292E312C8C
:1012400014E080917B00877F80937B0000937C007B
:1012500080917A00806480937A0080917A0086FD84
:10126000FCCF6091780070917900072E000C880BFC
:10127000990B0E940B0E6B017C01E8E6F2E0849171
:10128000E2E2F2E0D491ECEDF1E0C491CC2309F478
:1012900010C181110E94F401EC2FF0E0EE0FFF1F4E
:1012A000E457FE4FA591B4918C91D82391E080E052
:1012B00009F490E0C92FD82F83E292E00E940B0539
:1012C000C701B6010E94380620E030E040EA50E451
:1012D000C701B6010E94C00E20E030E040E85AE3AA
:1012E0000E94C00E20E030E040E05FE30E94EF0C7F
:1012F00020E030E048EC52E40E94C00E4B015C015B
:1013000085E392E00E940B0542E0C501B4010E9412
:101310005C0583E492E00E940B0580E292E00E946B
:101320000B05BE010D2E000C880B990B0E940B0EB5
:1013300060936402709365028093660290936702E3
:101340008092680290926902A0926A02B0926B0247
:10135000CD2B09F0B1C030920102209200026091C1
:101360005C0270915D0280915E0290915F020E942A
:10137000D30D6B01EB0161E083E00E9489022097AD
:1013800009F0A1C060E083E00E945B02C0915A02B4
:10139000D0915B028C81811158C181E08C838D8357
:1013A00010925C0210925D0210925E0210925F0237
:1013B0001092600210926102109262021092630217
:1013C000188219821A821B8289E492E00E940B051E
:1013D00060915C0270915D0280915E0290915F026B
:1013E0000E9438068EE492E00E940B056091600234
:1013F0007091610280916202909163020E943806AE
:1014000020E030E040EA51E4C501B4010E94BB0E87
:1014100087FD20C0D0E0C0E0CE010E948A01C090CC
:101420000002D09001020D2C000CEE08FF08C7014D
:10143000B6010E94EA022196C53BD10569F7C4EBCB
:10144000D0E0CE010E948A01C701B6010E94EA02E3
:101450002197B9F70E942004F4CE823061F41092F3
:10146000900080939100109295001092940088BB98
:1014700080937100C9CE833069F41092A00082E09D
:101480008093A1001092A5001092A40089BB8093C4
:101490007200BACE8111B8CE1092200182E0809302
:1014A000210110922501109224018ABB80937300C0
:1014B000ABCED0E0C0E000CF85E090E09093010299
:1014C000809300024CCFCF3FD10511F461E05BCF98
:1014D000E9E6F2E08491EFEFE80FE23108F0B0C006
:1014E000F0E08827E958F54F8F4F0C94E70C890AF4
:1014F0008E0A930A9D0AA70A200BB10AB90AC10AEB
:10150000CB0AD50ADF0AEE0AF80A200B020B0C0BF5
:10151000160B84B5806884BDC7BC38CF84B58062A3
:1015200084BDC8BC33CF80918000806880938000E8
:10153000D0928900C092880029CF8091800080627B
:1015400080938000D0928B00C0928A001FCF809140
:101550008000886080938000D0928D00C0928C00C3
:1015600015CF8091B00080688093B000C092B30026
:101570000DCF8091B00080628093B000C092B40023
:1015800005CF80919000806880939000D092990060
:10159000C0929800FBCE8091900080628093900072
:1015A000D0929B00C0929A00F1CE8091900088600A
:1015B00080939000D0929D00C0929C00E7CE8091D5
:1015C000A00080688093A0008091A0008F7B809312
:1015D000A000D092A900C092A800D8CE8091A0000F
:1015E00080628093A000D092AB00C092AA00CECEC1
:1015F0008091A00088608093A000D092AD00C0923E
:10160000AC00C4CE80912001806880932001D092EC
:101610002901C0922801BACE809120018062809376
:101620002001D0922B01C0922A01B0CE80912001DE
:10163000886080932001D0922D01C0922C01A6CE0B
:10164000C038D1050CF042CF9DCEC0906802D0903A
:101650006902E0906A02F0906B028D81813059F549
:101660001092600210926102109262021092630264
:1016700020E030E040EA51E4C701B6010E94BB0E11
:1016800018160CF0A1CE82E08D831E8320E030E09E
:1016900040EA51E4C701B6010E94EF0C60935C027E
:1016A00070935D0280935E0290935F0280E090E011
:1016B000A0E2B1E460C020E030E040EA51E4C701BC
:1016C000B6010E945C0D18161CF01E8281E067CEE8
:1016D00020E030E040EA51E4C701B6010E94EF0C7F
:1016E0006B017C018E81823009F44EC0833009F495
:1016F00093C0813009F0CBC0488059806A807B80DC
:1017000020E030E040EA50E4C301B2010E94BB0E89
:1017100087FD07C0188219821A821B8283E08E839C
:10172000A9C020E030E0A9016091640270916502D7
:1017300080916602909167020E945C0D811103C046
:1017400082E08E835CC020E030E040E85FE3C301CC
:10175000B2010E94F00C688379838A839B83C092D4
:101760005C02D0925D02E0925E02F0925F0280E045
:1017700090E0A0EAB1EC8093600290936102A093A4
:101780006202B093630220CE20E030E040E85FE3E5
:101790006091640270916502809166029091670287
:1017A0000E945C0D811103C081E08E83D8CF4880F8
:1017B00059806A807B8020E030E040E251E4C30140
:1017C000B2010E94BB0E87FD0EC0188219821A82D8
:1017D0001B821E83C0925C02D0925D02E0925E0288
:1017E000F0925F0263CF20E030E040E85FE3C301A6
:1017F000B2010E94F00C688379838A839B83C09234
:101800005C02D0925D02E0925E02F0925F0280E0A4
:1018100090E0A0E2B1ECAFCF20E030E0A901609110
:1018200064027091650280916602909167020E9445
:101830005C0D882371F2488059806A807B8020E0AB
:1018400030E040EA50E4C301B2010E94BB0E87FDC4
:1018500005C0188219821A821B82A6CF20E030E0D0
:1018600040E85FE3C301B2010E94F00C6883798312
:101870008A839B83C0925C02D0925D02E0925E02FA
:10188000F0925F0280E090E0A0EAB1E474CF20E043
:1018900030E040E85FE360916402709165028091FE
:1018A0006602909167020E945C0D882309F436CF8E
:1018B000488059806A807B8020E030E040E251E43B
:1018C000C301B2010E94BB0E87FD05C018821982B8
:1018D0001A821B8235CF20E030E040E85FE3C3018D
:1018E000B2010E94F00C688379838A839B8371CF55
:1018F000052E97FB1EF400940E948F0C57FD07D015
:101900000E94AA0C07FC03D04EF40C948F0C509547
:101910004095309521953F4F4F4F5F4F08959095DB
:101920008095709561957F4F8F4F9F4F08950E94CE
:10193000CC0CA59F900DB49F900DA49F800D911D80
:1019400011240895B7FF0C94970C0E94970C821BEA
:10195000930B0895A1E21A2EAA1BBB1BFD010DC01B
:10196000AA1FBB1FEE1FFF1FA217B307E407F5074F
:1019700020F0A21BB30BE40BF50B661F771F881F2B
:10198000991F1A9469F760957095809590959B01C1
:10199000AC01BD01CF010895A29FB001B39FC0016A
:1019A000A39F700D811D1124911DB29F700D811D8B
:1019B0001124911D0895991B79E004C0991F961771
:1019C00008F0961B881F7A95C9F780950895EE0F49
:1019D000FF1F881F8BBF0790F691E02D1994505878
:1019E000BB27AA270E94070D0C94810E0E94730E3C
:1019F00038F00E947A0E20F039F49F3F19F426F453
:101A00000C94700E0EF4E095E7FB0C946A0EE92F2F
:101A10000E94920E58F3BA1762077307840795075E
:101A200020F079F4A6F50C94B40E0EF4E0950B2E8C
:101A3000BA2FA02D0B01B90190010C01CA01A00120
:101A40001124FF27591B99F0593F50F4503E68F17B
:101A50001A16F040A22F232F342F4427585FF3CFBC
:101A6000469537952795A795F0405395C9F77EF48D
:101A70001F16BA0B620B730B840BBAF09150A1F0D6
:101A8000FF0FBB1F661F771F881FC2F70EC0BA0F5C
:101A9000621F731F841F48F4879577956795B795E4
:101AA000F7959E3F08F0B0CF9395880F08F09927DF
:101AB000EE0F9795879508950E94460E08F481E0F1
:101AC00008950E94750D0C94810E0E947A0E58F0B4
:101AD0000E94730E40F029F45F3F29F00C946A0EC7
:101AE00051110C94B50E0C94700E0E94920E68F376
:101AF0009923B1F3552391F3951B550BBB27AA27C7
:101B000062177307840738F09F5F5F4F220F331F00
:101B1000441FAA1FA9F335D00E2E3AF0E0E832D0C8
:101B200091505040E695001CCAF72BD0FE2F29D0CB
:101B3000660F771F881FBB1F261737074807AB079D
:101B4000B0E809F0BB0B802DBF01FF2793585F4F12
:101B50003AF09E3F510578F00C946A0E0C94B50E45
:101B60005F3FE4F3983ED4F3869577956795B795F4
:101B7000F7959F5FC9F7880F911D9695879597F9FF
:101B80000895E1E0660F771F881FBB1F6217730778
:101B90008407BA0720F0621B730B840BBA0BEE1F8D
:101BA00088F7E09508950E94DA0D6894B1110C94BD
:101BB000B50E08950E949A0E88F09F5798F0B92F9D
:101BC0009927B751B0F0E1F0660F771F881F991F72
:101BD0001AF0BA95C9F714C0B13091F00E94B40E52
:101BE000B1E008950C94B40E672F782F8827B85F62
:101BF00039F0B93FCCF3869577956795B395D9F7CA
:101C00003EF490958095709561957F4F8F4F9F4FD3
:101C10000895E89409C097FB3EF4909580957095DF
:101C200061957F4F8F4F9F4F9923A9F0F92F96E928
:101C3000BB279395F695879577956795B795F1119D
:101C4000F8CFFAF4BB0F11F460FF1BC06F5F7F4F3A
:101C50008F4F9F4F16C0882311F096E911C077234C
:101C600021F09EE8872F762F05C0662371F096E855
:101C7000862F70E060E02AF09A95660F771F881F24
:101C8000DAF7880F9695879597F90895990F0008C8
:101C9000550FAA0BE0E8FEEF16161706E807F9073E
:101CA000C0F012161306E407F50798F0621B730BD9
:101CB000840B950B39F40A2661F0232B242B252B5A
:101CC00021F408950A2609F4A140A6958FEF811DFD
:101CD000811D089597F99F6780E870E060E008959E
:101CE0009FEF80EC089500240A9416161706180634
:101CF0000906089500240A94121613061406050610
:101D00000895092E0394000C11F4882352F0BB0FA0
:101D100040F4BF2B11F460FF04C06F5F7F4F8F4F03
:101D20009F4F089557FD9058440F551F59F05F3F3E
:101D300071F04795880F97FB991F61F09F3F79F0ED
:101D400087950895121613061406551FF2CF46956F
:101D5000F1DF08C0161617061806991FF1CF8695F1
:101D60007105610508940895E894BB2766277727D5
:101D7000CB0197F908950E94460E08F48FEF08955D
:101D80000E94D30E0C94810E0E94730E38F00E94B4
:101D90007A0E20F0952311F00C946A0E0C94700EBC
:101DA00011240C94B50E0E94920E70F3959FC1F30E
:101DB000950F50E0551F629FF001729FBB27F00DF9
:101DC000B11D639FAA27F00DB11DAA1F649F66274E
:101DD000B00DA11D661F829F2227B00DA11D621F9D
:101DE000739FB00DA11D621F839FA00D611D221F57
:101DF000749F3327A00D611D231F849F600D211D3B
:101E0000822F762F6A2F11249F5750409AF0F1F0BD
:101E100088234AF0EE0FFF1FBB1F661F771F881F26
:101E200091505040A9F79E3F510580F00C946A0EE6
:101E30000C94B50E5F3FE4F3983ED4F38695779506
:101E40006795B795F795E7959F5FC1F7FE2B880FCC
:101E5000911D9695879597F908950E94460E880BD7
:081E6000990B0895F894FFCFDF
:101E68000A0000000000B3031D034A0300047B03BB
:101E780059036D036E616E00696E66006F766600C9
:101E88000D0A007468697320616E616C6F67205475
:101E98004D503A200054656D7065726174757265B5
:101EA8003A200020C2B043200056313A2000563272
:041EB8003A200000CC
:00000001FF
