:100000000C9462000C948A000C948A000C948A0070
:100010000C948A000C948A000C948A000C948A0038
:100020000C948A000C948A000C948A000C94CC04E2
:100030000C948A000C948A000C948A000C948A0018
:100040000C942A040C948A000C949A040C94740462
:100050000C948A000C948A000C948A000C948A00F8
:100060000C948A000C948A000000000023002600F3
:10007000290000000000240027002A0000000000E2
:10008000250028002B0004040404040404040202D4
:100090000202020203030303030301020408102007
:1000A0004080010204081020010204081020000012
:1000B0000008000201000003040700000000000027
:1000C0000000880511241FBECFEFD8E0DEBFCDBFF2
:1000D00011E0A0E0B1E0E6E8F8E102C005900D9281
:1000E000A435B107D9F722E0A4E5B1E001C01D9223
:1000F000A733B207E1F710E0C2E6D0E004C02197D1
:10010000FE010E943B0CC136D107C9F70E94E505EC
:100110000C94410C0C9400008F929F92AF92BF926E
:10012000FF920F931F93CF93DF93F09034022BE055
:100130002F1508F451C02091360208E512E0021B89
:10014000110927FD1395000F111F000F111F20919A
:100150003502C8E8D0E0C21BD10927FDD395CC0FEA
:10016000DD1FCC0FDD1F4E010D2E000CAA08BB08B1
:10017000DC01853B910514F0A4EBB0E09801012E61
:10018000000C440B550B281939094A095B090E94D8
:10019000B30924EB30E040E050E00E948909820E70
:1001A000931EA41EB51E8C169D062CF0E801801629
:1001B00091060CF4E4012297CC0FDD1F2FB7F894C1
:1001C0008F2D90E0FC01EE0FFF1FE80FF91FE15F9C
:1001D000FD4FD283C1832FBFDF91CF911F910F912C
:1001E000FF90BF90AF909F908F900895833081F0E3
:1001F00028F4813099F08230A9F008958730A9F071
:100200008830C9F08430B1F4809180008F7D03C0C4
:10021000809180008F7780938000089584B58F77D8
:1002200084BD089584B58F7DFBCF8091B0008F771A
:100230008093B00008958091B0008F7DF9CF1F9317
:10024000CF93DF93282F30E0F901E255FF4F8491DF
:10025000F901E656FF4FD491F901EA57FF4FC491D7
:10026000CC23A9F0162F81110E94F600EC2FF0E0AC
:10027000EE0FFF1FE458FF4FA591B4918FB7F8948C
:10028000EC91111108C0D095DE23DC938FBFDF9174
:10029000CF911F910895DE2BF8CFCF93DF9390E09D
:1002A000FC01E656FF4F24918A579F4FFC01849131
:1002B0008823C9F090E0880F991FFC01EE58FF4F8A
:1002C000A591B491FC01E458FF4FC591D4916111FF
:1002D0000DC09FB7F8948C91209582238C938881D0
:1002E000282328839FBFDF91CF910895623051F476
:1002F0009FB7F8943C91822F809583238C93E8815B
:100300002E2BEFCF8FB7F894EC912E2B2C938FBF21
:10031000EACF3FB7F89480916E0190916F01A09160
:100320007001B091710126B5A89B05C02F3F19F04F
:100330000196A11DB11D3FBFBA2FA92F982F882765
:10034000BC01CD01620F711D811D911D42E0660F40
:10035000771F881F991F4A95D1F708958F929F9212
:10036000AF92BF92CF92DF92EF92FF926B017C012E
:100370000E9489014B015C01C114D104E104F10424
:10038000B9F00E948901681979098A099B09683EB8
:1003900073408105910580F321E0C21AD108E1087C
:1003A000F10888EE880E83E0981EA11CB11CE4CFF2
:1003B000FF90EF90DF90CF90BF90AF909F908F9085
:1003C0000895AF92BF92CF92DF92EF92FF920F9378
:1003D0001F93CF93DF936C017B018B01040F151FDB
:1003E000EB015E01AE18BF08C017D10759F0699143
:1003F000D601ED91FC910190F081E02DC6010995A7
:10040000892B79F7C501DF91CF911F910F91FF9053
:10041000EF90DF90CF90BF90AF900895FC01538D87
:10042000448D252F30E0842F90E0821B930B5417CE
:1004300010F0CF96089501970895FC01918D828D5B
:10044000981761F0A28DAE0FBF2FB11D5D968C91F4
:10045000928D9F5F9F73928F90E008958FEF9FEF33
:100460000895FC01918D828D981731F0828DE80FEF
:10047000F11D858D90E008958FEF9FEF0895FC01A9
:10048000918D228D892F90E0805C9F4F821B910976
:100490008F739927089582E791E00E943F0221E03F
:1004A000892B09F420E0822F089580E090E0892BC9
:1004B00029F00E944B0281110C9400000895FC0168
:1004C000A48DA80FB92FB11DA35ABF4F2C91848DB5
:1004D00090E001968F739927848FA689B7892C9312
:1004E000A089B1898C91837080648C93938D848D65
:1004F000981306C00288F389E02D80818F7D808368
:100500000895EF92FF920F931F93CF93DF93EC0127
:1005100081E0888F9B8D8C8D98131AC0E889F989AA
:10052000808185FF15C09FB7F894EE89FF896083AD
:10053000E889F98980818370806480839FBF81E02E
:1005400090E0DF91CF911F910F91FF90EF90089570
:10055000F62E0B8D10E00F5F1F4F0F731127E02E4B
:100560008C8D8E110CC00FB607FCFACFE889F98983
:10057000808185FFF5CFCE010E945F02F1CFEB8D28
:10058000EC0FFD2FF11DE35AFF4FF0829FB7F89457
:100590000B8FEA89FB8980818062CFCFCF93DF9375
:1005A000EC01888D8823B9F0AA89BB89E889F9898B
:1005B0008C9185FD03C0808186FD0DC00FB607FCC0
:1005C000F7CF8C9185FFF2CF808185FFEDCFCE01F3
:1005D0000E945F02E9CFDF91CF910895FC01019065
:1005E0000020E9F73197AF01481B590BBC0182E7A6
:1005F00091E00C94E1018F929F92AF92BF920F9382
:100600001F93CF93DF93CDB7DEB7A1970FB6F894C2
:10061000DEBF0FBECDBF19A2423008F44AE08E0102
:100620000F5D1F4F842E912CB12CA12CA50194019C
:100630000E94BB09E62FB901CA01EA30F4F4E05D7B
:10064000D801EE938D01232B242B252B79F790E0F5
:1006500080E0109719F0CD010E94EE02A1960FB62E
:10066000F894DEBF0FBECDBFDF91CF911F910F91E8
:10067000BF90AF909F908F900895E95CE1CF4F922B
:100680005F926F927F928F929F92AF92BF92CF9222
:10069000DF92EF92FF920F931F93CF936B017C0138
:1006A000742EAC019B010E942A0C882399F084E1EE
:1006B00091E0CF911F910F91FF90EF90DF90CF903D
:1006C000BF90AF909F908F907F906F905F904F9072
:1006D0000C94EE0246015701E894B7F82FEF3FEF74
:1006E0004FE75FE7C501B4010E942A0C81110DC0DC
:1006F0002FEF3FEF4FE75FE7C501B4010E94590AB2
:1007000018161CF488E191E0D4CF2FEF3FEF4FE7AC
:100710005FE4C701B6010E94B80B18161CF48CE107
:1007200091E0C7CF2FEF3FEF4FE75FECC701B60176
:100730000E94590A87FDF3CF20E030E0A901C701EC
:10074000B6010E94590A10E000E087FF0AC06DE27E
:1007500082E791E00E9481028C01F7FAF094F7F8A9
:10076000F094C0E060E070E080E09FE37C1641F030
:1007700020E030E040E251E40E945E0ACF5FF6CF15
:10078000A70196010E94ED092B013C010E94D70AA6
:100790004B015C014AE00E94FB027C01E00EF11E6D
:1007A000CC23C1F1C501B4010E94060B9B01AC0131
:1007B000C301B2010E94EC094B015C016EE282E7C9
:1007C00091E00E948102E80EF91EC15018F120E06C
:1007D00030E040E251E4C501B4010E94BD0B2B01A1
:1007E0003C010E94D70A4B01B12CA12C4AE0C50163
:1007F000B4010E94FB02E80EF91EC501B4010E947B
:10080000060B9B01AC01C301B2010E94EC094B0134
:100810005C01DBCFC701CF911F910F91FF90EF904B
:10082000DF90CF90BF90AF909F908F907F906F9010
:100830005F904F900895CF93DF9342E00E943F0373
:10084000EC0180E291E00E94EE028C0F9D1FDF918F
:10085000CF9108951F920F920FB60F9211242F93EC
:100860003F938F939F93AF93BF9380916A01909131
:100870006B01A0916C01B0916D013091690123E091
:10088000230F2D3758F50196A11DB11D2093690145
:1008900080936A0190936B01A0936C01B0936D01FA
:1008A00080916E0190916F01A0917001B0917101E2
:1008B0000196A11DB11D80936E0190936F01A093CD
:1008C0007001B0937101BF91AF919F918F913F9152
:1008D0002F910F900FBE0F901F90189526E8230FB1
:1008E0000296A11DB11DD2CF1F920F920FB60F928B
:1008F00011242F933F934F935F936F937F938F9325
:100900009F93AF93BF93EF93FF9382E791E00E9491
:100910005F02FF91EF91BF91AF919F918F917F9176
:100920006F915F914F913F912F910F900FBE0F905C
:100930001F9018951F920F920FB60F9211242F93AC
:100940008F939F93EF93FF93E0918201F091830146
:100950008081E0918801F091890182FD1BC0908126
:1009600080918B018F5F8F7320918C01821741F0F2
:10097000E0918B01F0E0EE58FE4F958F80938B0154
:10098000FF91EF919F918F912F910F900FBE0F903C
:100990001F9018958081F4CF1F920F920FB60F927F
:1009A00011242F933F934F935F936F937F938F9374
:1009B0009F93AF93BF93CF93DF93EF93FF93809178
:1009C0005401C0913302D0E087FF24C0109285000B
:1009D00010928400809154018F5F80935401809124
:1009E0005401082E000C990B8C179D0724F480915C
:1009F00054018C30C4F1809184009091850004965C
:100A000080349C4908F47AC08091840090918500DC
:100A1000049676C080915401082E000C990B8C1717
:100A20009D07C4F6E09154018E2FEE0F990BFC0147
:100A3000EE0FFF1FE80FF91FE15FFD4F808186FF7A
:100A4000C9CFE09154018E2FEE0F990BFC01EE0FF0
:100A5000FF1FE80FF91FE15FFD4F808160E08F739A
:100A60000E941F01B7CF2091840030918500E09152
:100A700054018E2FEE0F990BFC01EE0FFF1FE80FB4
:100A8000F91FE15FFD4F81819281820F931F909347
:100A9000890080938800E09154018E2FEE0F990B0E
:100AA000FC01EE0FFF1FE80FF91FE15FFD4F808192
:100AB00086FF11C0E09154018E2FEE0F990BFC01BF
:100AC000EE0FFF1FE80FF91FE15FFD4F808161E02E
:100AD0008F730E941F01FF91EF91DF91CF91BF9122
:100AE000AF919F918F917F916F915F914F913F91C6
:100AF0002F910F900FBE0F901F90189580E49CE9E6
:100B000090938900809388008FEF80935401E3CF06
:100B1000109275011092740188EE93E0A0E0B0E0AD
:100B20008093760190937701A0937801B093790137
:100B300086E091E0909373018093720185EC90E0E0
:100B400090937F0180937E0184EC90E090938101EB
:100B50008093800180EC90E09093830180938201E8
:100B600081EC90E0909385018093840182EC90E089
:100B7000909387018093860186EC90E090938901A1
:100B80008093880110928B0110928C0110928D013C
:100B900010928E01809133028C3098F491E0980F7E
:100BA000909333028093340290E0FC01EE0FFF1F1C
:100BB000E80FF91FE15FFD4F88EB9BE09283818393
:100BC00008958FEF809334020895789484B58260FD
:100BD00084BD84B5816084BD85B5826085BD85B5E1
:100BE000816085BD80916E00816080936E0010925F
:100BF00081008091810082608093810080918100DA
:100C0000816080938100809180008160809380006A
:100C10008091B10084608093B1008091B0008160C8
:100C20008093B00080917A00846080937A008091F4
:100C30007A00826080937A0080917A00816080934C
:100C40007A0080917A00806880937A001092C100C7
:100C5000E0918201F091830182E08083E0917E0146
:100C6000F0917F011082E0918001F09181018FEC81
:100C7000808310928A01E0918601F091870186E0DD
:100C80008083E0918401F09185018081806180837F
:100C9000E0918401F0918501808188608083E091FA
:100CA0008401F0918501808180688083E0918401D6
:100CB000F091850180818F7D808360E08EE00E94CD
:100CC0004D0162E082E00E944D0161E083E00E94FC
:100CD0004D0162E082E00E944D01809134028C302F
:100CE00008F051C061E089E00E944D01809134021A
:100CF000282F30E0F901EE0FFF1FE20FF31FE15F35
:100D0000FD4F9081907C99609083109235021092F3
:100D100036022CE0622F0E942F0C829FB00111241A
:100D200030E020E0AB01420F531FFA01EE0FFF1F2E
:100D3000E40FF51FE15FFD4F908196FD16C02F5F18
:100D40003F4F2C30310571F781110FC01092800098
:100D500082E0809381001092850010928400B19A05
:100D600080916F00826080936F00E09134028E2F3B
:100D700090E0FC01EE0FFF1FE80FF91FE15FFD4F50
:100D800080818064808390E080E00E948C00E0910C
:100D90005701F09158011482158200E414E090E0AC
:100DA000292E90E0392E00937C0080917A00806497
:100DB00080937A0080917A0086FDFCCF6091780064
:100DC00070917900072E000C880B990B0E94080B7C
:100DD0006B017C01E0EBF0E08491ECE9F0E0D49170
:100DE000E8E8F0E0C491CC2309F4EFC081110E943F
:100DF000F600EC2FF0E0EE0FFF1FE859FF4FA59132
:100E0000B4918C91D82391E080E009F490E0C92F4F
:100E1000D82F83E291E00E94EE02C701B6010E9442
:100E20001B0420E030E040EA50E4C701B6010E9414
:100E3000BD0B20E030E040E85AE30E94BD0B20E00B
:100E400030E040E05FE30E94EC0920E030E048EC55
:100E500052E40E94BD0B4B015C0185E391E00E94CE
:100E6000EE0242E0C501B4010E943F0383E491E039
:100E70000E94EE0280E291E00E94EE02BE010D2E81
:100E8000000C880B990B0E94080B60936101709312
:100E90006201809363019093640180926501909256
:100EA0006601A0926701B0926801CD2B09F090C055
:100EB00084E690E0909301018093000160915901D4
:100EC00070915A0180915B0190915C010E94D00A5F
:100ED0006B01EB0161E083E00E944D01209709F076
:100EE0007EC060E083E00E941F01C0915701D09155
:100EF00058018C818111BAC081E08C838D8310925E
:100F0000590110925A0110925B0110925C011092EB
:100F10005D0110925E0110925F01109260011882D3
:100F200019821A821B8289E491E00E94EE0260918C
:100F3000590170915A0180915B0190915C010E946E
:100F40001B048EE491E00E94EE0260915D017091BD
:100F50005E0180915F01909160010E941B0420E07E
:100F600030E048E951E4C501B4010E94B80B1816FD
:100F700004F5D0E0C0E0CE010E948C00C0900001DA
:100F8000D09001010D2C000CEE08FF08C701B6013E
:100F90000E94AE012296C63BD10569F7C4EBD0E0B2
:100FA000CE010E948C00C701B6010E94AE012297BB
:100FB000B9F72114310409F4F6CE0E944B028823BC
:100FC00009F4EBCE0E940000E8CED0E0C0E021CFD3
:100FD000AAE0B0E0B0930101A09300016FCFCF3F32
:100FE000D10511F461E07ECFE1EBF0E08491833034
:100FF00019F140F48130B1F08230C9F0C038D10528
:101000008CF76FCF873011F1883041F18430B1F720
:1010100080918000806280938000D0928B00C0928B
:101020008A0063CF84B5806884BDC7BC5ECF84B5B9
:10103000806284BDC8BC59CF809180008068809355
:101040008000D0928900C09288004FCF8091B0007C
:1010500080688093B000C092B30047CF8091B00009
:1010600080628093B000C092B4003FCFC090650111
:10107000D0906601E0906701F09068018D81813029
:1010800059F510925D0110925E0110925F0110926D
:10109000600120E030E040EA51E4C701B6010E945F
:1010A000B80B18160CF03FCF82E08D831E8320E032
:1010B00030E040EA51E4C701B6010E94EC096093B8
:1010C000590170935A0180935B0190935C0180E019
:1010D00090E0A0E2B1E460C020E030E040EA51E4FA
:1010E000C701B6010E94590A18161CF01E8281E041
:1010F00005CF20E030E040EA51E4C701B6010E948C
:10110000EC096B017C018E81823009F44EC0833082
:1011100009F493C0813009F0CBC0488059806A80BF
:101120007B8020E030E040EA50E4C301B2010E943D
:10113000B80B87FD07C0188219821A821B8283E0D0
:101140008E83A9C020E030E0A90160916101709117
:10115000620180916301909164010E94590A81119A
:1011600003C082E08E835CC020E030E040E85FE3B3
:10117000C301B2010E94ED09688379838A839B834E
:10118000C0925901D0925A01E0925B01F0925C0149
:1011900080E090E0A0EAB1EC80935D0190935E0165
:1011A000A0935F01B0936001BECE20E030E040E844
:1011B0005FE36091610170916201809163019091A0
:1011C00064010E94590A811103C081E08E83D8CF47
:1011D000488059806A807B8020E030E040E251E422
:1011E000C301B2010E94B80B87FD0EC0188219829C
:1011F0001A821B821E83C0925901D0925A01E0923A
:101200005B01F0925C0163CF20E030E040E85FE3F7
:10121000C301B2010E94ED09688379838A839B83AD
:10122000C0925901D0925A01E0925B01F0925C01A8
:1012300080E090E0A0E2B1ECAFCF20E030E0A90187
:1012400060916101709162018091630190916401EC
:101250000E94590A882371F2488059806A807B80F5
:1012600020E030E040EA50E4C301B2010E94B80B34
:1012700087FD05C0188219821A821B82A6CF20E042
:1012800030E040E85FE3C301B2010E94ED096883EA
:1012900079838A839B83C0925901D0925A01E0924C
:1012A0005B01F0925C0180E090E0A0EAB1E474CFD1
:1012B00020E030E040E85FE36091610170916201FD
:1012C00080916301909164010E94590A882309F476
:1012D00036CF488059806A807B8020E030E040E251
:1012E00051E4C301B2010E94B80B87FD05C018820A
:1012F00019821A821B8235CF20E030E040E85FE39C
:10130000C301B2010E94ED09688379838A839B83BC
:1013100071CF052E97FB1EF400940E94A00957FD83
:1013200007D00E94BB0907FC03D04EF40C94A0091F
:1013300050954095309521953F4F4F4F5F4F089501
:1013400090958095709561957F4F8F4F9F4F089531
:101350000E94DD09A59F900DB49F900DA49F800D64
:10136000911D11240895B7FF0C94A8090E94A809A3
:10137000821B930B0895A1E21A2EAA1BBB1BFD0131
:101380000DC0AA1FBB1FEE1FFF1FA217B307E40764
:10139000F50720F0A21BB30BE40BF50B661F771FBC
:1013A000881F991F1A9469F760957095809590959C
:1013B0009B01AC01BD01CF010895A29FB001B39F75
:1013C000C001A39F700D811D1124911DB29F700D4E
:1013D000811D1124911D08955058BB27AA270E94F2
:1013E000040A0C947E0B0E94700B38F00E94770B5D
:1013F00020F039F49F3F19F426F40C946D0B0EF491
:10140000E095E7FB0C94670BE92F0E948F0B58F3D4
:10141000BA17620773078407950720F079F4A6F5D9
:101420000C94B10B0EF4E0950B2EBA2FA02D0B01EE
:10143000B90190010C01CA01A0011124FF27591B19
:1014400099F0593F50F4503E68F11A16F040A22F1F
:10145000232F342F4427585FF3CF46953795279590
:10146000A795F0405395C9F77EF41F16BA0B620B8F
:10147000730B840BBAF09150A1F0FF0FBB1F661FD6
:10148000771F881FC2F70EC0BA0F621F731F841F19
:1014900048F4879577956795B795F7959E3F08F03F
:1014A000B0CF9395880F08F09927EE0F9795879501
:1014B00008950E94430B08F481E008950E94720A87
:1014C0000C947E0B0E94770B58F00E94700B40F03A
:1014D00029F45F3F29F00C94670B51110C94B20B67
:1014E0000C946D0B0E948F0B68F39923B1F3552375
:1014F00091F3951B550BBB27AA2762177307840727
:1015000038F09F5F5F4F220F331F441FAA1FA9F3BC
:1015100035D00E2E3AF0E0E832D091505040E695AA
:10152000001CCAF72BD0FE2F29D0660F771F881F0B
:10153000BB1F261737074807AB07B0E809F0BB0BFE
:10154000802DBF01FF2793585F4F3AF09E3F510512
:1015500078F00C94670B0C94B20B5F3FE4F3983E69
:10156000D4F3869577956795B795F7959F5FC9F7FB
:10157000880F911D9695879597F90895E1E0660F7C
:10158000771F881FBB1F621773078407BA0720F0F5
:10159000621B730B840BBA0BEE1F88F7E09508955E
:1015A0000E94D70A6894B1110C94B20B08950E945E
:1015B000970B88F09F5798F0B92F9927B751B0F043
:1015C000E1F0660F771F881F991F1AF0BA95C9F7C7
:1015D00014C0B13091F00E94B10BB1E008950C94A9
:1015E000B10B672F782F8827B85F39F0B93FCCF35C
:1015F000869577956795B395D9F73EF49095809544
:10160000709561957F4F8F4F9F4F0895E89409C063
:1016100097FB3EF490958095709561957F4F8F4F25
:101620009F4F9923A9F0F92F96E9BB279395F6953B
:10163000879577956795B795F111F8CFFAF4BB0FB9
:1016400011F460FF1BC06F5F7F4F8F4F9F4F16C01D
:10165000882311F096E911C0772321F09EE8872FA7
:10166000762F05C0662371F096E8862F70E060E063
:101670002AF09A95660F771F881FDAF7880F9695DC
:10168000879597F90895990F0008550FAA0BE0E880
:10169000FEEF16161706E807F907C0F01216130634
:1016A000E407F50798F0621B730B840B950B39F474
:1016B0000A2661F0232B242B252B21F408950A26DA
:1016C00009F4A140A6958FEF811D811D089597F91A
:1016D0009F6780E870E060E008959FEF80EC0895D8
:1016E00000240A9416161706180609060895002401
:1016F0000A9412161306140605060895092E03947B
:10170000000C11F4882352F0BB0F40F4BF2B11F4EE
:1017100060FF04C06F5F7F4F8F4F9F4F089557FD4D
:101720009058440F551F59F05F3F71F04795880F4F
:1017300097FB991F61F09F3F79F0879508951216E6
:1017400013061406551FF2CF4695F1DF08C0161692
:1017500017061806991FF1CF869571056105089443
:101760000895E894BB2766277727CB0197F908955A
:101770000E94430B08F48FEF08950E94D00B0C9445
:101780007E0B0E94700B38F00E94770B20F095239F
:1017900011F00C94670B0C946D0B11240C94B20B8C
:1017A0000E948F0B70F3959FC1F3950F50E0551F6A
:1017B000629FF001729FBB27F00DB11D639FAA27A6
:1017C000F00DB11DAA1F649F6627B00DA11D661FF5
:1017D000829F2227B00DA11D621F739FB00DA11D16
:1017E000621F839FA00D611D221F749F3327A00DD0
:1017F000611D231F849F600D211D822F762F6A2F6C
:1018000011249F5750409AF0F1F088234AF0EE0FD0
:10181000FF1FBB1F661F771F881F91505040A9F7FD
:101820009E3F510580F00C94670B0C94B20B5F3F08
:10183000E4F3983ED4F3869577956795B795F79539
:10184000E7959F5FC1F7FE2B880F911D96958795B1
:1018500097F908950E94430B880B990B0895991BE3
:1018600079E004C0991F961708F0961B881F7A9597
:10187000C9F780950895EE0FFF1F0590F491E02DB4
:061880000994F894FFCF6B
:101886000A00000000008102E1010E02CE023F02C2
:101896001D0231026E616E00696E66006F7666002B
:1018A6000D0A007468697320616E616C6F6720545D
:1018B6004D503A200054656D70657261747572659D
:1018C6003A200020C2B043200056313A200056325A
:0418D6003A200000B4
:00000001FF
